{
  "abi": [
    {
      "inputs": [
        {
          "internalType": "address",
          "name": "_priceFeedAddress",
          "type": "address"
        }
      ],
      "stateMutability": "nonpayable",
      "type": "constructor"
    },
    {
      "anonymous": false,
      "inputs": [
        {
          "indexed": true,
          "internalType": "address",
          "name": "previousOwner",
          "type": "address"
        },
        {
          "indexed": true,
          "internalType": "address",
          "name": "newOwner",
          "type": "address"
        }
      ],
      "name": "OwnershipTransferred",
      "type": "event"
    },
    {
      "inputs": [
        {
          "internalType": "string",
          "name": "_certificate",
          "type": "string"
        },
        {
          "internalType": "string",
          "name": "_date",
          "type": "string"
        },
        {
          "internalType": "string",
          "name": "_title",
          "type": "string"
        },
        {
          "internalType": "address",
          "name": "_address",
          "type": "address"
        },
        {
          "internalType": "string",
          "name": "_name",
          "type": "string"
        },
        {
          "internalType": "string",
          "name": "_additional",
          "type": "string"
        },
        {
          "internalType": "string",
          "name": "_hash",
          "type": "string"
        }
      ],
      "name": "addCertificate",
      "outputs": [],
      "stateMutability": "payable",
      "type": "function"
    },
    {
      "inputs": [
        {
          "internalType": "address",
          "name": "",
          "type": "address"
        },
        {
          "internalType": "uint256",
          "name": "",
          "type": "uint256"
        }
      ],
      "name": "addressToContract",
      "outputs": [
        {
          "internalType": "address",
          "name": "",
          "type": "address"
        }
      ],
      "stateMutability": "view",
      "type": "function"
    },
    {
      "inputs": [
        {
          "internalType": "address",
          "name": "_yourAddress",
          "type": "address"
        }
      ],
      "name": "arrayLengthGetter",
      "outputs": [
        {
          "internalType": "uint256",
          "name": "",
          "type": "uint256"
        },
        {
          "internalType": "uint256",
          "name": "",
          "type": "uint256"
        }
      ],
      "stateMutability": "view",
      "type": "function"
    },
    {
      "inputs": [
        {
          "internalType": "address",
          "name": "_yourAddress",
          "type": "address"
        }
      ],
      "name": "getCertificatesYouOwn",
      "outputs": [
        {
          "internalType": "address[]",
          "name": "",
          "type": "address[]"
        }
      ],
      "stateMutability": "view",
      "type": "function"
    },
    {
      "inputs": [],
      "name": "getLastCertificate",
      "outputs": [
        {
          "internalType": "address",
          "name": "",
          "type": "address"
        }
      ],
      "stateMutability": "view",
      "type": "function"
    },
    {
      "inputs": [],
      "name": "getMinimumFee",
      "outputs": [
        {
          "internalType": "uint256",
          "name": "",
          "type": "uint256"
        }
      ],
      "stateMutability": "view",
      "type": "function"
    },
    {
      "inputs": [],
      "name": "owner",
      "outputs": [
        {
          "internalType": "address",
          "name": "",
          "type": "address"
        }
      ],
      "stateMutability": "view",
      "type": "function"
    },
    {
      "inputs": [],
      "name": "renounceOwnership",
      "outputs": [],
      "stateMutability": "nonpayable",
      "type": "function"
    },
    {
      "inputs": [],
      "name": "showBalance",
      "outputs": [
        {
          "internalType": "uint256",
          "name": "",
          "type": "uint256"
        }
      ],
      "stateMutability": "view",
      "type": "function"
    },
    {
      "inputs": [
        {
          "internalType": "address",
          "name": "current_owner",
          "type": "address"
        },
        {
          "internalType": "address",
          "name": "new_owner",
          "type": "address"
        },
        {
          "internalType": "address",
          "name": "cert_address",
          "type": "address"
        }
      ],
      "name": "transOwnership",
      "outputs": [],
      "stateMutability": "payable",
      "type": "function"
    },
    {
      "inputs": [
        {
          "internalType": "address",
          "name": "newOwner",
          "type": "address"
        }
      ],
      "name": "transferOwnership",
      "outputs": [],
      "stateMutability": "nonpayable",
      "type": "function"
    },
    {
      "inputs": [],
      "name": "usdEntryFee",
      "outputs": [
        {
          "internalType": "uint256",
          "name": "",
          "type": "uint256"
        }
      ],
      "stateMutability": "view",
      "type": "function"
    },
    {
      "inputs": [],
      "name": "withdraw",
      "outputs": [],
      "stateMutability": "payable",
      "type": "function"
    }
  ],
  "bytecode": "608060405234801561001057600080fd5b50604051611bd2380380611bd283398101604081905261002f916100ba565b6100383361006a565b600480546001600160a01b0319166001600160a01b03929092169190911790556802b5e3af16b18800006003556100ea565b600080546001600160a01b038381166001600160a01b0319831681178455604051919092169283917f8be0079c531659141344cd1fd0a4f28419497f9722a3daafe3b4186f6b6457e09190a35050565b6000602082840312156100cc57600080fd5b81516001600160a01b03811681146100e357600080fd5b9392505050565b611ad9806100f96000396000f3fe608060405260043610620000d25760003560e01c80638da5cb5b1162000089578063e0dd8ce91162000060578063e0dd8ce91462000216578063e1746b97146200022d578063e2041f941462000252578063f2fde38b146200026957600080fd5b80638da5cb5b146200018f578063a3d565a514620001c3578063cada8bfe14620001fe57600080fd5b80632045cf3214620000d75780633ccfd60b14620001145780634cd370b91462000120578063715018a6146200014757806381b2d07b146200015f57806388ab139a1462000177575b600080fd5b348015620000e457600080fd5b50620000fc620000f636600462000961565b6200028e565b6040516200010b919062000986565b60405180910390f35b6200011e62000306565b005b3480156200012d57600080fd5b506200013862000340565b6040519081526020016200010b565b3480156200015457600080fd5b506200011e620003fc565b3480156200016c57600080fd5b506200013862000414565b3480156200018457600080fd5b506200013860035481565b3480156200019c57600080fd5b506000546001600160a01b03165b6040516001600160a01b0390911681526020016200010b565b348015620001d057600080fd5b50620001e8620001e236600462000961565b62000425565b604080519283526020830191909152016200010b565b3480156200020b57600080fd5b50620001aa6200044f565b6200011e6200022736600462000a80565b620004a2565b3480156200023a57600080fd5b50620001aa6200024c36600462000b9c565b62000599565b6200011e6200026336600462000bc9565b620005d2565b3480156200027657600080fd5b506200011e6200028836600462000961565b620007d9565b6001600160a01b038116600090815260016020908152604091829020805483518184028101840190945280845260609392830182828015620002fa57602002820191906000526020600020905b81546001600160a01b03168152600190910190602001808311620002db575b50505050509050919050565b6200031062000855565b60405133904780156108fc02916000818181858888f193505050501580156200033d573d6000803e3d6000fd5b50565b6004805460408051633fabe5a360e21b8152905160009384936001600160a01b03169263feaf968c928183019260a0928290030181865afa1580156200038a573d6000803e3d6000fd5b505050506040513d601f19601f82011682018060405250810190620003b0919062000c2e565b5050509150506000816402540be400620003cb919062000c99565b9050600081600354670de0b6b3a7640000620003e8919062000c99565b620003f4919062000cbb565b949350505050565b6200040662000855565b620004126000620008b1565b565b60006200042062000855565b504790565b6000806200043262000855565b600254600062000442856200028e565b5191935090915050915091565b60006200045b62000855565b6002546000906200046f9060019062000cde565b90506002818154811062000487576200048762000cfa565b6000918252602090912001546001600160a01b031691505090565b620004ac62000340565b341015620004d75760405162461bcd60e51b8152600401620004ce9062000d10565b60405180910390fd5b600087878787878787604051620004ee9062000901565b62000500979695949392919062000dae565b604051809103906000f0801580156200051d573d6000803e3d6000fd5b506002805460018181019092557f405787fa12a823e0f2b7631cc41b3ba8828b3321ca811111fa75cd3aa3bb5ace0180546001600160a01b039093166001600160a01b03199384168117909155336000908152602083815260408220805494850181558252902090910180549092161790555050505050505050565b60016020528160005260406000208181548110620005b657600080fd5b6000918252602090912001546001600160a01b03169150829050565b6001600160a01b03831633146200063b5760405162461bcd60e51b815260206004820152602660248201527f596f7520417265204e6f74204f776e6572204f6620546869732043657274696660448201526569636174652160d01b6064820152608401620004ce565b6200064562000340565b341015620006675760405162461bcd60e51b8152600401620004ce9062000d10565b600062000674846200028e565b6001600160a01b03851660009081526001602052604081209192506200069b91906200090f565b60005b8151811015620007d257826001600160a01b0316828281518110620006c757620006c762000cfa565b60200260200101516001600160a01b0316036200071c576001600160a01b03848116600090815260016020818152604083208054928301815583529091200180546001600160a01b0319169185169190911790555b826001600160a01b03168282815181106200073b576200073b62000cfa565b60200260200101516001600160a01b031614620007bd576001600160a01b0385166000908152600160205260409020825183908390811062000781576200078162000cfa565b60209081029190910181015182546001810184556000938452919092200180546001600160a01b0319166001600160a01b039092169190911790555b80620007c98162000e4c565b9150506200069e565b5050505050565b620007e362000855565b6001600160a01b0381166200084a5760405162461bcd60e51b815260206004820152602660248201527f4f776e61626c653a206e6577206f776e657220697320746865207a65726f206160448201526564647265737360d01b6064820152608401620004ce565b6200033d81620008b1565b6000546001600160a01b03163314620004125760405162461bcd60e51b815260206004820181905260248201527f4f776e61626c653a2063616c6c6572206973206e6f7420746865206f776e65726044820152606401620004ce565b600080546001600160a01b038381166001600160a01b0319831681178455604051919092169283917f8be0079c531659141344cd1fd0a4f28419497f9722a3daafe3b4186f6b6457e09190a35050565b610c3b8062000e6983390190565b50805460008255906000526020600020908101906200033d91905b808211156200094057600081556001016200092a565b5090565b80356001600160a01b03811681146200095c57600080fd5b919050565b6000602082840312156200097457600080fd5b6200097f8262000944565b9392505050565b6020808252825182820181905260009190848201906040850190845b81811015620009c95783516001600160a01b031683529284019291840191600101620009a2565b50909695505050505050565b634e487b7160e01b600052604160045260246000fd5b600082601f830112620009fd57600080fd5b813567ffffffffffffffff8082111562000a1b5762000a1b620009d5565b604051601f8301601f19908116603f0116810190828211818310171562000a465762000a46620009d5565b8160405283815286602085880101111562000a6057600080fd5b836020870160208301376000602085830101528094505050505092915050565b600080600080600080600060e0888a03121562000a9c57600080fd5b873567ffffffffffffffff8082111562000ab557600080fd5b62000ac38b838c01620009eb565b985060208a013591508082111562000ada57600080fd5b62000ae88b838c01620009eb565b975060408a013591508082111562000aff57600080fd5b62000b0d8b838c01620009eb565b965062000b1d60608b0162000944565b955060808a013591508082111562000b3457600080fd5b62000b428b838c01620009eb565b945060a08a013591508082111562000b5957600080fd5b62000b678b838c01620009eb565b935060c08a013591508082111562000b7e57600080fd5b5062000b8d8a828b01620009eb565b91505092959891949750929550565b6000806040838503121562000bb057600080fd5b62000bbb8362000944565b946020939093013593505050565b60008060006060848603121562000bdf57600080fd5b62000bea8462000944565b925062000bfa6020850162000944565b915062000c0a6040850162000944565b90509250925092565b805169ffffffffffffffffffff811681146200095c57600080fd5b600080600080600060a0868803121562000c4757600080fd5b62000c528662000c13565b945060208601519350604086015192506060860151915062000c776080870162000c13565b90509295509295909350565b634e487b7160e01b600052601160045260246000fd5b600081600019048311821515161562000cb65762000cb662000c83565b500290565b60008262000cd957634e487b7160e01b600052601260045260246000fd5b500490565b8181038181111562000cf45762000cf462000c83565b92915050565b634e487b7160e01b600052603260045260246000fd5b60208082526036908201527f4e6f7420456e6f756768204554482c20796f75206861766520746f2070617920604082015275746f206372656174652063657274696669636174652160501b606082015260800190565b6000815180845260005b8181101562000d8e5760208185018101518683018201520162000d70565b506000602082860101526020601f19601f83011685010191505092915050565b60e08152600062000dc360e083018a62000d66565b828103602084015262000dd7818a62000d66565b9050828103604084015262000ded818962000d66565b6001600160a01b03881660608501528381036080850152905062000e12818762000d66565b905082810360a084015262000e28818662000d66565b905082810360c084015262000e3e818562000d66565b9a9950505050505050505050565b60006001820162000e615762000e6162000c83565b506001019056fe60806040523480156200001157600080fd5b5060405162000c3b38038062000c3b83398101604081905262000034916200029f565b6200003f336200016d565b6040805160e081018252888152602081018890529081018690526001600160a01b03851660608201526080810184905260a0810183905260c08101829052600180548082018255600091909152815160079091027fb10e2d527612073b26eecdfd717e6a320cf44b4afac2b0732d9fcbe2b7fa0cf601908190620000c4908262000449565b5060208201516001820190620000db908262000449565b5060408201516002820190620000f2908262000449565b5060608201516003820180546001600160a01b0319166001600160a01b03909216919091179055608082015160048201906200012f908262000449565b5060a0820151600582019062000146908262000449565b5060c082015160068201906200015d908262000449565b5050505050505050505062000515565b600080546001600160a01b038381166001600160a01b0319831681178455604051919092169283917f8be0079c531659141344cd1fd0a4f28419497f9722a3daafe3b4186f6b6457e09190a35050565b634e487b7160e01b600052604160045260246000fd5b600082601f830112620001e557600080fd5b81516001600160401b0380821115620002025762000202620001bd565b604051601f8301601f19908116603f011681019082821181831017156200022d576200022d620001bd565b816040528381526020925086838588010111156200024a57600080fd5b600091505b838210156200026e57858201830151818301840152908201906200024f565b600093810190920192909252949350505050565b80516001600160a01b03811681146200029a57600080fd5b919050565b600080600080600080600060e0888a031215620002bb57600080fd5b87516001600160401b0380821115620002d357600080fd5b620002e18b838c01620001d3565b985060208a0151915080821115620002f857600080fd5b620003068b838c01620001d3565b975060408a01519150808211156200031d57600080fd5b6200032b8b838c01620001d3565b96506200033b60608b0162000282565b955060808a01519150808211156200035257600080fd5b620003608b838c01620001d3565b945060a08a01519150808211156200037757600080fd5b620003858b838c01620001d3565b935060c08a01519150808211156200039c57600080fd5b50620003ab8a828b01620001d3565b91505092959891949750929550565b600181811c90821680620003cf57607f821691505b602082108103620003f057634e487b7160e01b600052602260045260246000fd5b50919050565b601f8211156200044457600081815260208120601f850160051c810160208610156200041f5750805b601f850160051c820191505b8181101562000440578281556001016200042b565b5050505b505050565b81516001600160401b03811115620004655762000465620001bd565b6200047d81620004768454620003ba565b84620003f6565b602080601f831160018114620004b557600084156200049c5750858301515b600019600386901b1c1916600185901b17855562000440565b600085815260208120601f198616915b82811015620004e657888601518255948401946001909101908401620004c5565b5085821015620005055787850151600019600388901b60f8161c191681555b5050505050600190811b01905550565b61071680620005256000396000f3fe608060405234801561001057600080fd5b506004361061004c5760003560e01c8063365b98b214610051578063715018a6146100805780638da5cb5b1461008a578063f2fde38b146100a5575b600080fd5b61006461005f366004610585565b6100b8565b60405161007797969594939291906105e4565b60405180910390f35b610088610449565b005b6000546040516001600160a01b039091168152602001610077565b6100886100b3366004610676565b61045d565b600181815481106100c857600080fd5b90600052602060002090600702016000915090508060000180546100eb906106a6565b80601f0160208091040260200160405190810160405280929190818152602001828054610117906106a6565b80156101645780601f1061013957610100808354040283529160200191610164565b820191906000526020600020905b81548152906001019060200180831161014757829003601f168201915b505050505090806001018054610179906106a6565b80601f01602080910402602001604051908101604052809291908181526020018280546101a5906106a6565b80156101f25780601f106101c7576101008083540402835291602001916101f2565b820191906000526020600020905b8154815290600101906020018083116101d557829003601f168201915b505050505090806002018054610207906106a6565b80601f0160208091040260200160405190810160405280929190818152602001828054610233906106a6565b80156102805780601f1061025557610100808354040283529160200191610280565b820191906000526020600020905b81548152906001019060200180831161026357829003601f168201915b505050600384015460048501805494956001600160a01b039092169491935091506102aa906106a6565b80601f01602080910402602001604051908101604052809291908181526020018280546102d6906106a6565b80156103235780601f106102f857610100808354040283529160200191610323565b820191906000526020600020905b81548152906001019060200180831161030657829003601f168201915b505050505090806005018054610338906106a6565b80601f0160208091040260200160405190810160405280929190818152602001828054610364906106a6565b80156103b15780601f10610386576101008083540402835291602001916103b1565b820191906000526020600020905b81548152906001019060200180831161039457829003601f168201915b5050505050908060060180546103c6906106a6565b80601f01602080910402602001604051908101604052809291908181526020018280546103f2906106a6565b801561043f5780601f106104145761010080835404028352916020019161043f565b820191906000526020600020905b81548152906001019060200180831161042257829003601f168201915b5050505050905087565b6104516104db565b61045b6000610535565b565b6104656104db565b6001600160a01b0381166104cf5760405162461bcd60e51b815260206004820152602660248201527f4f776e61626c653a206e6577206f776e657220697320746865207a65726f206160448201526564647265737360d01b60648201526084015b60405180910390fd5b6104d881610535565b50565b6000546001600160a01b0316331461045b5760405162461bcd60e51b815260206004820181905260248201527f4f776e61626c653a2063616c6c6572206973206e6f7420746865206f776e657260448201526064016104c6565b600080546001600160a01b038381166001600160a01b0319831681178455604051919092169283917f8be0079c531659141344cd1fd0a4f28419497f9722a3daafe3b4186f6b6457e09190a35050565b60006020828403121561059757600080fd5b5035919050565b6000815180845260005b818110156105c4576020818501810151868301820152016105a8565b506000602082860101526020601f19601f83011685010191505092915050565b60e0815260006105f760e083018a61059e565b8281036020840152610609818a61059e565b9050828103604084015261061d818961059e565b6001600160a01b038816606085015283810360808501529050610640818761059e565b905082810360a0840152610654818661059e565b905082810360c0840152610668818561059e565b9a9950505050505050505050565b60006020828403121561068857600080fd5b81356001600160a01b038116811461069f57600080fd5b9392505050565b600181811c908216806106ba57607f821691505b6020821081036106da57634e487b7160e01b600052602260045260246000fd5b5091905056fea2646970667358221220bfeb9879991a2df0966991c762aa9a8871b5405dea8d98e914796fa32785195664736f6c63430008100033a26469706673582212207a0a4cf5a3800a11a69a55cb81da23ffc38de6808073fbf514ff888ba52ed06064736f6c63430008100033",
  "bytecodeSha1": "83e72accd5bbd152a3cdfc00691d2df585d2a200",
  "compiler": {
    "evm_version": "istanbul",
    "optimizer": {
      "enabled": true,
      "runs": 200
    },
    "version": "0.8.16+commit.07a7930e"
  },
  "contractName": "CopyRightLockCreator",
  "language": "Solidity",
  "natspec": {
    "kind": "dev",
    "methods": {
      "owner()": {
        "details": "Returns the address of the current owner."
      },
      "renounceOwnership()": {
        "details": "Leaves the contract without owner. It will not be possible to call `onlyOwner` functions anymore. Can only be called by the current owner. NOTE: Renouncing ownership will leave the contract without an owner, thereby removing any functionality that is only available to the owner."
      },
      "transferOwnership(address)": {
        "details": "Transfers ownership of the contract to a new account (`newOwner`). Can only be called by the current owner."
      }
    },
    "version": 1
  },
  "opcodes": "PUSH1 0x80 PUSH1 0x40 MSTORE PUSH1 0x4 CALLDATASIZE LT PUSH3 0xD2 JUMPI PUSH1 0x0 CALLDATALOAD PUSH1 0xE0 SHR DUP1 PUSH4 0x8DA5CB5B GT PUSH3 0x89 JUMPI DUP1 PUSH4 0xE0DD8CE9 GT PUSH3 0x60 JUMPI DUP1 PUSH4 0xE0DD8CE9 EQ PUSH3 0x216 JUMPI DUP1 PUSH4 0xE1746B97 EQ PUSH3 0x22D JUMPI DUP1 PUSH4 0xE2041F94 EQ PUSH3 0x252 JUMPI DUP1 PUSH4 0xF2FDE38B EQ PUSH3 0x269 JUMPI PUSH1 0x0 DUP1 REVERT JUMPDEST DUP1 PUSH4 0x8DA5CB5B EQ PUSH3 0x18F JUMPI DUP1 PUSH4 0xA3D565A5 EQ PUSH3 0x1C3 JUMPI DUP1 PUSH4 0xCADA8BFE EQ PUSH3 0x1FE JUMPI PUSH1 0x0 DUP1 REVERT JUMPDEST DUP1 PUSH4 0x2045CF32 EQ PUSH3 0xD7 JUMPI DUP1 PUSH4 0x3CCFD60B EQ PUSH3 0x114 JUMPI DUP1 PUSH4 0x4CD370B9 EQ PUSH3 0x120 JUMPI DUP1 PUSH4 0x715018A6 EQ PUSH3 0x147 JUMPI DUP1 PUSH4 0x81B2D07B EQ PUSH3 0x15F JUMPI DUP1 PUSH4 0x88AB139A EQ PUSH3 0x177 JUMPI JUMPDEST PUSH1 0x0 DUP1 REVERT JUMPDEST CALLVALUE DUP1 ISZERO PUSH3 0xE4 JUMPI PUSH1 0x0 DUP1 REVERT JUMPDEST POP PUSH3 0xFC PUSH3 0xF6 CALLDATASIZE PUSH1 0x4 PUSH3 0x961 JUMP JUMPDEST PUSH3 0x28E JUMP JUMPDEST PUSH1 0x40 MLOAD PUSH3 0x10B SWAP2 SWAP1 PUSH3 0x986 JUMP JUMPDEST PUSH1 0x40 MLOAD DUP1 SWAP2 SUB SWAP1 RETURN JUMPDEST PUSH3 0x11E PUSH3 0x306 JUMP JUMPDEST STOP JUMPDEST CALLVALUE DUP1 ISZERO PUSH3 0x12D JUMPI PUSH1 0x0 DUP1 REVERT JUMPDEST POP PUSH3 0x138 PUSH3 0x340 JUMP JUMPDEST PUSH1 0x40 MLOAD SWAP1 DUP2 MSTORE PUSH1 0x20 ADD PUSH3 0x10B JUMP JUMPDEST CALLVALUE DUP1 ISZERO PUSH3 0x154 JUMPI PUSH1 0x0 DUP1 REVERT JUMPDEST POP PUSH3 0x11E PUSH3 0x3FC JUMP JUMPDEST CALLVALUE DUP1 ISZERO PUSH3 0x16C JUMPI PUSH1 0x0 DUP1 REVERT JUMPDEST POP PUSH3 0x138 PUSH3 0x414 JUMP JUMPDEST CALLVALUE DUP1 ISZERO PUSH3 0x184 JUMPI PUSH1 0x0 DUP1 REVERT JUMPDEST POP PUSH3 0x138 PUSH1 0x3 SLOAD DUP2 JUMP JUMPDEST CALLVALUE DUP1 ISZERO PUSH3 0x19C JUMPI PUSH1 0x0 DUP1 REVERT JUMPDEST POP PUSH1 0x0 SLOAD PUSH1 0x1 PUSH1 0x1 PUSH1 0xA0 SHL SUB AND JUMPDEST PUSH1 0x40 MLOAD PUSH1 0x1 PUSH1 0x1 PUSH1 0xA0 SHL SUB SWAP1 SWAP2 AND DUP2 MSTORE PUSH1 0x20 ADD PUSH3 0x10B JUMP JUMPDEST CALLVALUE DUP1 ISZERO PUSH3 0x1D0 JUMPI PUSH1 0x0 DUP1 REVERT JUMPDEST POP PUSH3 0x1E8 PUSH3 0x1E2 CALLDATASIZE PUSH1 0x4 PUSH3 0x961 JUMP JUMPDEST PUSH3 0x425 JUMP JUMPDEST PUSH1 0x40 DUP1 MLOAD SWAP3 DUP4 MSTORE PUSH1 0x20 DUP4 ADD SWAP2 SWAP1 SWAP2 MSTORE ADD PUSH3 0x10B JUMP JUMPDEST CALLVALUE DUP1 ISZERO PUSH3 0x20B JUMPI PUSH1 0x0 DUP1 REVERT JUMPDEST POP PUSH3 0x1AA PUSH3 0x44F JUMP JUMPDEST PUSH3 0x11E PUSH3 0x227 CALLDATASIZE PUSH1 0x4 PUSH3 0xA80 JUMP JUMPDEST PUSH3 0x4A2 JUMP JUMPDEST CALLVALUE DUP1 ISZERO PUSH3 0x23A JUMPI PUSH1 0x0 DUP1 REVERT JUMPDEST POP PUSH3 0x1AA PUSH3 0x24C CALLDATASIZE PUSH1 0x4 PUSH3 0xB9C JUMP JUMPDEST PUSH3 0x599 JUMP JUMPDEST PUSH3 0x11E PUSH3 0x263 CALLDATASIZE PUSH1 0x4 PUSH3 0xBC9 JUMP JUMPDEST PUSH3 0x5D2 JUMP JUMPDEST CALLVALUE DUP1 ISZERO PUSH3 0x276 JUMPI PUSH1 0x0 DUP1 REVERT JUMPDEST POP PUSH3 0x11E PUSH3 0x288 CALLDATASIZE PUSH1 0x4 PUSH3 0x961 JUMP JUMPDEST PUSH3 0x7D9 JUMP JUMPDEST PUSH1 0x1 PUSH1 0x1 PUSH1 0xA0 SHL SUB DUP2 AND PUSH1 0x0 SWAP1 DUP2 MSTORE PUSH1 0x1 PUSH1 0x20 SWAP1 DUP2 MSTORE PUSH1 0x40 SWAP2 DUP3 SWAP1 KECCAK256 DUP1 SLOAD DUP4 MLOAD DUP2 DUP5 MUL DUP2 ADD DUP5 ADD SWAP1 SWAP5 MSTORE DUP1 DUP5 MSTORE PUSH1 0x60 SWAP4 SWAP3 DUP4 ADD DUP3 DUP3 DUP1 ISZERO PUSH3 0x2FA JUMPI PUSH1 0x20 MUL DUP3 ADD SWAP2 SWAP1 PUSH1 0x0 MSTORE PUSH1 0x20 PUSH1 0x0 KECCAK256 SWAP1 JUMPDEST DUP2 SLOAD PUSH1 0x1 PUSH1 0x1 PUSH1 0xA0 SHL SUB AND DUP2 MSTORE PUSH1 0x1 SWAP1 SWAP2 ADD SWAP1 PUSH1 0x20 ADD DUP1 DUP4 GT PUSH3 0x2DB JUMPI JUMPDEST POP POP POP POP POP SWAP1 POP SWAP2 SWAP1 POP JUMP JUMPDEST PUSH3 0x310 PUSH3 0x855 JUMP JUMPDEST PUSH1 0x40 MLOAD CALLER SWAP1 SELFBALANCE DUP1 ISZERO PUSH2 0x8FC MUL SWAP2 PUSH1 0x0 DUP2 DUP2 DUP2 DUP6 DUP9 DUP9 CALL SWAP4 POP POP POP POP ISZERO DUP1 ISZERO PUSH3 0x33D JUMPI RETURNDATASIZE PUSH1 0x0 DUP1 RETURNDATACOPY RETURNDATASIZE PUSH1 0x0 REVERT JUMPDEST POP JUMP JUMPDEST PUSH1 0x4 DUP1 SLOAD PUSH1 0x40 DUP1 MLOAD PUSH4 0x3FABE5A3 PUSH1 0xE2 SHL DUP2 MSTORE SWAP1 MLOAD PUSH1 0x0 SWAP4 DUP5 SWAP4 PUSH1 0x1 PUSH1 0x1 PUSH1 0xA0 SHL SUB AND SWAP3 PUSH4 0xFEAF968C SWAP3 DUP2 DUP4 ADD SWAP3 PUSH1 0xA0 SWAP3 DUP3 SWAP1 SUB ADD DUP2 DUP7 GAS STATICCALL ISZERO DUP1 ISZERO PUSH3 0x38A JUMPI RETURNDATASIZE PUSH1 0x0 DUP1 RETURNDATACOPY RETURNDATASIZE PUSH1 0x0 REVERT JUMPDEST POP POP POP POP PUSH1 0x40 MLOAD RETURNDATASIZE PUSH1 0x1F NOT PUSH1 0x1F DUP3 ADD AND DUP3 ADD DUP1 PUSH1 0x40 MSTORE POP DUP2 ADD SWAP1 PUSH3 0x3B0 SWAP2 SWAP1 PUSH3 0xC2E JUMP JUMPDEST POP POP POP SWAP2 POP POP PUSH1 0x0 DUP2 PUSH5 0x2540BE400 PUSH3 0x3CB SWAP2 SWAP1 PUSH3 0xC99 JUMP JUMPDEST SWAP1 POP PUSH1 0x0 DUP2 PUSH1 0x3 SLOAD PUSH8 0xDE0B6B3A7640000 PUSH3 0x3E8 SWAP2 SWAP1 PUSH3 0xC99 JUMP JUMPDEST PUSH3 0x3F4 SWAP2 SWAP1 PUSH3 0xCBB JUMP JUMPDEST SWAP5 SWAP4 POP POP POP POP JUMP JUMPDEST PUSH3 0x406 PUSH3 0x855 JUMP JUMPDEST PUSH3 0x412 PUSH1 0x0 PUSH3 0x8B1 JUMP JUMPDEST JUMP JUMPDEST PUSH1 0x0 PUSH3 0x420 PUSH3 0x855 JUMP JUMPDEST POP SELFBALANCE SWAP1 JUMP JUMPDEST PUSH1 0x0 DUP1 PUSH3 0x432 PUSH3 0x855 JUMP JUMPDEST PUSH1 0x2 SLOAD PUSH1 0x0 PUSH3 0x442 DUP6 PUSH3 0x28E JUMP JUMPDEST MLOAD SWAP2 SWAP4 POP SWAP1 SWAP2 POP POP SWAP2 POP SWAP2 JUMP JUMPDEST PUSH1 0x0 PUSH3 0x45B PUSH3 0x855 JUMP JUMPDEST PUSH1 0x2 SLOAD PUSH1 0x0 SWAP1 PUSH3 0x46F SWAP1 PUSH1 0x1 SWAP1 PUSH3 0xCDE JUMP JUMPDEST SWAP1 POP PUSH1 0x2 DUP2 DUP2 SLOAD DUP2 LT PUSH3 0x487 JUMPI PUSH3 0x487 PUSH3 0xCFA JUMP JUMPDEST PUSH1 0x0 SWAP2 DUP3 MSTORE PUSH1 0x20 SWAP1 SWAP2 KECCAK256 ADD SLOAD PUSH1 0x1 PUSH1 0x1 PUSH1 0xA0 SHL SUB AND SWAP2 POP POP SWAP1 JUMP JUMPDEST PUSH3 0x4AC PUSH3 0x340 JUMP JUMPDEST CALLVALUE LT ISZERO PUSH3 0x4D7 JUMPI PUSH1 0x40 MLOAD PUSH3 0x461BCD PUSH1 0xE5 SHL DUP2 MSTORE PUSH1 0x4 ADD PUSH3 0x4CE SWAP1 PUSH3 0xD10 JUMP JUMPDEST PUSH1 0x40 MLOAD DUP1 SWAP2 SUB SWAP1 REVERT JUMPDEST PUSH1 0x0 DUP8 DUP8 DUP8 DUP8 DUP8 DUP8 DUP8 PUSH1 0x40 MLOAD PUSH3 0x4EE SWAP1 PUSH3 0x901 JUMP JUMPDEST PUSH3 0x500 SWAP8 SWAP7 SWAP6 SWAP5 SWAP4 SWAP3 SWAP2 SWAP1 PUSH3 0xDAE JUMP JUMPDEST PUSH1 0x40 MLOAD DUP1 SWAP2 SUB SWAP1 PUSH1 0x0 CREATE DUP1 ISZERO DUP1 ISZERO PUSH3 0x51D JUMPI RETURNDATASIZE PUSH1 0x0 DUP1 RETURNDATACOPY RETURNDATASIZE PUSH1 0x0 REVERT JUMPDEST POP PUSH1 0x2 DUP1 SLOAD PUSH1 0x1 DUP2 DUP2 ADD SWAP1 SWAP3 SSTORE PUSH32 0x405787FA12A823E0F2B7631CC41B3BA8828B3321CA811111FA75CD3AA3BB5ACE ADD DUP1 SLOAD PUSH1 0x1 PUSH1 0x1 PUSH1 0xA0 SHL SUB SWAP1 SWAP4 AND PUSH1 0x1 PUSH1 0x1 PUSH1 0xA0 SHL SUB NOT SWAP4 DUP5 AND DUP2 OR SWAP1 SWAP2 SSTORE CALLER PUSH1 0x0 SWAP1 DUP2 MSTORE PUSH1 0x20 DUP4 DUP2 MSTORE PUSH1 0x40 DUP3 KECCAK256 DUP1 SLOAD SWAP5 DUP6 ADD DUP2 SSTORE DUP3 MSTORE SWAP1 KECCAK256 SWAP1 SWAP2 ADD DUP1 SLOAD SWAP1 SWAP3 AND OR SWAP1 SSTORE POP POP POP POP POP POP POP POP JUMP JUMPDEST PUSH1 0x1 PUSH1 0x20 MSTORE DUP2 PUSH1 0x0 MSTORE PUSH1 0x40 PUSH1 0x0 KECCAK256 DUP2 DUP2 SLOAD DUP2 LT PUSH3 0x5B6 JUMPI PUSH1 0x0 DUP1 REVERT JUMPDEST PUSH1 0x0 SWAP2 DUP3 MSTORE PUSH1 0x20 SWAP1 SWAP2 KECCAK256 ADD SLOAD PUSH1 0x1 PUSH1 0x1 PUSH1 0xA0 SHL SUB AND SWAP2 POP DUP3 SWAP1 POP JUMP JUMPDEST PUSH1 0x1 PUSH1 0x1 PUSH1 0xA0 SHL SUB DUP4 AND CALLER EQ PUSH3 0x63B JUMPI PUSH1 0x40 MLOAD PUSH3 0x461BCD PUSH1 0xE5 SHL DUP2 MSTORE PUSH1 0x20 PUSH1 0x4 DUP3 ADD MSTORE PUSH1 0x26 PUSH1 0x24 DUP3 ADD MSTORE PUSH32 0x596F7520417265204E6F74204F776E6572204F66205468697320436572746966 PUSH1 0x44 DUP3 ADD MSTORE PUSH6 0x696361746521 PUSH1 0xD0 SHL PUSH1 0x64 DUP3 ADD MSTORE PUSH1 0x84 ADD PUSH3 0x4CE JUMP JUMPDEST PUSH3 0x645 PUSH3 0x340 JUMP JUMPDEST CALLVALUE LT ISZERO PUSH3 0x667 JUMPI PUSH1 0x40 MLOAD PUSH3 0x461BCD PUSH1 0xE5 SHL DUP2 MSTORE PUSH1 0x4 ADD PUSH3 0x4CE SWAP1 PUSH3 0xD10 JUMP JUMPDEST PUSH1 0x0 PUSH3 0x674 DUP5 PUSH3 0x28E JUMP JUMPDEST PUSH1 0x1 PUSH1 0x1 PUSH1 0xA0 SHL SUB DUP6 AND PUSH1 0x0 SWAP1 DUP2 MSTORE PUSH1 0x1 PUSH1 0x20 MSTORE PUSH1 0x40 DUP2 KECCAK256 SWAP2 SWAP3 POP PUSH3 0x69B SWAP2 SWAP1 PUSH3 0x90F JUMP JUMPDEST PUSH1 0x0 JUMPDEST DUP2 MLOAD DUP2 LT ISZERO PUSH3 0x7D2 JUMPI DUP3 PUSH1 0x1 PUSH1 0x1 PUSH1 0xA0 SHL SUB AND DUP3 DUP3 DUP2 MLOAD DUP2 LT PUSH3 0x6C7 JUMPI PUSH3 0x6C7 PUSH3 0xCFA JUMP JUMPDEST PUSH1 0x20 MUL PUSH1 0x20 ADD ADD MLOAD PUSH1 0x1 PUSH1 0x1 PUSH1 0xA0 SHL SUB AND SUB PUSH3 0x71C JUMPI PUSH1 0x1 PUSH1 0x1 PUSH1 0xA0 SHL SUB DUP5 DUP2 AND PUSH1 0x0 SWAP1 DUP2 MSTORE PUSH1 0x1 PUSH1 0x20 DUP2 DUP2 MSTORE PUSH1 0x40 DUP4 KECCAK256 DUP1 SLOAD SWAP3 DUP4 ADD DUP2 SSTORE DUP4 MSTORE SWAP1 SWAP2 KECCAK256 ADD DUP1 SLOAD PUSH1 0x1 PUSH1 0x1 PUSH1 0xA0 SHL SUB NOT AND SWAP2 DUP6 AND SWAP2 SWAP1 SWAP2 OR SWAP1 SSTORE JUMPDEST DUP3 PUSH1 0x1 PUSH1 0x1 PUSH1 0xA0 SHL SUB AND DUP3 DUP3 DUP2 MLOAD DUP2 LT PUSH3 0x73B JUMPI PUSH3 0x73B PUSH3 0xCFA JUMP JUMPDEST PUSH1 0x20 MUL PUSH1 0x20 ADD ADD MLOAD PUSH1 0x1 PUSH1 0x1 PUSH1 0xA0 SHL SUB AND EQ PUSH3 0x7BD JUMPI PUSH1 0x1 PUSH1 0x1 PUSH1 0xA0 SHL SUB DUP6 AND PUSH1 0x0 SWAP1 DUP2 MSTORE PUSH1 0x1 PUSH1 0x20 MSTORE PUSH1 0x40 SWAP1 KECCAK256 DUP3 MLOAD DUP4 SWAP1 DUP4 SWAP1 DUP2 LT PUSH3 0x781 JUMPI PUSH3 0x781 PUSH3 0xCFA JUMP JUMPDEST PUSH1 0x20 SWAP1 DUP2 MUL SWAP2 SWAP1 SWAP2 ADD DUP2 ADD MLOAD DUP3 SLOAD PUSH1 0x1 DUP2 ADD DUP5 SSTORE PUSH1 0x0 SWAP4 DUP5 MSTORE SWAP2 SWAP1 SWAP3 KECCAK256 ADD DUP1 SLOAD PUSH1 0x1 PUSH1 0x1 PUSH1 0xA0 SHL SUB NOT AND PUSH1 0x1 PUSH1 0x1 PUSH1 0xA0 SHL SUB SWAP1 SWAP3 AND SWAP2 SWAP1 SWAP2 OR SWAP1 SSTORE JUMPDEST DUP1 PUSH3 0x7C9 DUP2 PUSH3 0xE4C JUMP JUMPDEST SWAP2 POP POP PUSH3 0x69E JUMP JUMPDEST POP POP POP POP POP JUMP JUMPDEST PUSH3 0x7E3 PUSH3 0x855 JUMP JUMPDEST PUSH1 0x1 PUSH1 0x1 PUSH1 0xA0 SHL SUB DUP2 AND PUSH3 0x84A JUMPI PUSH1 0x40 MLOAD PUSH3 0x461BCD PUSH1 0xE5 SHL DUP2 MSTORE PUSH1 0x20 PUSH1 0x4 DUP3 ADD MSTORE PUSH1 0x26 PUSH1 0x24 DUP3 ADD MSTORE PUSH32 0x4F776E61626C653A206E6577206F776E657220697320746865207A65726F2061 PUSH1 0x44 DUP3 ADD MSTORE PUSH6 0x646472657373 PUSH1 0xD0 SHL PUSH1 0x64 DUP3 ADD MSTORE PUSH1 0x84 ADD PUSH3 0x4CE JUMP JUMPDEST PUSH3 0x33D DUP2 PUSH3 0x8B1 JUMP JUMPDEST PUSH1 0x0 SLOAD PUSH1 0x1 PUSH1 0x1 PUSH1 0xA0 SHL SUB AND CALLER EQ PUSH3 0x412 JUMPI PUSH1 0x40 MLOAD PUSH3 0x461BCD PUSH1 0xE5 SHL DUP2 MSTORE PUSH1 0x20 PUSH1 0x4 DUP3 ADD DUP2 SWAP1 MSTORE PUSH1 0x24 DUP3 ADD MSTORE PUSH32 0x4F776E61626C653A2063616C6C6572206973206E6F7420746865206F776E6572 PUSH1 0x44 DUP3 ADD MSTORE PUSH1 0x64 ADD PUSH3 0x4CE JUMP JUMPDEST PUSH1 0x0 DUP1 SLOAD PUSH1 0x1 PUSH1 0x1 PUSH1 0xA0 SHL SUB DUP4 DUP2 AND PUSH1 0x1 PUSH1 0x1 PUSH1 0xA0 SHL SUB NOT DUP4 AND DUP2 OR DUP5 SSTORE PUSH1 0x40 MLOAD SWAP2 SWAP1 SWAP3 AND SWAP3 DUP4 SWAP2 PUSH32 0x8BE0079C531659141344CD1FD0A4F28419497F9722A3DAAFE3B4186F6B6457E0 SWAP2 SWAP1 LOG3 POP POP JUMP JUMPDEST PUSH2 0xC3B DUP1 PUSH3 0xE69 DUP4 CODECOPY ADD SWAP1 JUMP JUMPDEST POP DUP1 SLOAD PUSH1 0x0 DUP3 SSTORE SWAP1 PUSH1 0x0 MSTORE PUSH1 0x20 PUSH1 0x0 KECCAK256 SWAP1 DUP2 ADD SWAP1 PUSH3 0x33D SWAP2 SWAP1 JUMPDEST DUP1 DUP3 GT ISZERO PUSH3 0x940 JUMPI PUSH1 0x0 DUP2 SSTORE PUSH1 0x1 ADD PUSH3 0x92A JUMP JUMPDEST POP SWAP1 JUMP JUMPDEST DUP1 CALLDATALOAD PUSH1 0x1 PUSH1 0x1 PUSH1 0xA0 SHL SUB DUP2 AND DUP2 EQ PUSH3 0x95C JUMPI PUSH1 0x0 DUP1 REVERT JUMPDEST SWAP2 SWAP1 POP JUMP JUMPDEST PUSH1 0x0 PUSH1 0x20 DUP3 DUP5 SUB SLT ISZERO PUSH3 0x974 JUMPI PUSH1 0x0 DUP1 REVERT JUMPDEST PUSH3 0x97F DUP3 PUSH3 0x944 JUMP JUMPDEST SWAP4 SWAP3 POP POP POP JUMP JUMPDEST PUSH1 0x20 DUP1 DUP3 MSTORE DUP3 MLOAD DUP3 DUP3 ADD DUP2 SWAP1 MSTORE PUSH1 0x0 SWAP2 SWAP1 DUP5 DUP3 ADD SWAP1 PUSH1 0x40 DUP6 ADD SWAP1 DUP5 JUMPDEST DUP2 DUP2 LT ISZERO PUSH3 0x9C9 JUMPI DUP4 MLOAD PUSH1 0x1 PUSH1 0x1 PUSH1 0xA0 SHL SUB AND DUP4 MSTORE SWAP3 DUP5 ADD SWAP3 SWAP2 DUP5 ADD SWAP2 PUSH1 0x1 ADD PUSH3 0x9A2 JUMP JUMPDEST POP SWAP1 SWAP7 SWAP6 POP POP POP POP POP POP JUMP JUMPDEST PUSH4 0x4E487B71 PUSH1 0xE0 SHL PUSH1 0x0 MSTORE PUSH1 0x41 PUSH1 0x4 MSTORE PUSH1 0x24 PUSH1 0x0 REVERT JUMPDEST PUSH1 0x0 DUP3 PUSH1 0x1F DUP4 ADD SLT PUSH3 0x9FD JUMPI PUSH1 0x0 DUP1 REVERT JUMPDEST DUP2 CALLDATALOAD PUSH8 0xFFFFFFFFFFFFFFFF DUP1 DUP3 GT ISZERO PUSH3 0xA1B JUMPI PUSH3 0xA1B PUSH3 0x9D5 JUMP JUMPDEST PUSH1 0x40 MLOAD PUSH1 0x1F DUP4 ADD PUSH1 0x1F NOT SWAP1 DUP2 AND PUSH1 0x3F ADD AND DUP2 ADD SWAP1 DUP3 DUP3 GT DUP2 DUP4 LT OR ISZERO PUSH3 0xA46 JUMPI PUSH3 0xA46 PUSH3 0x9D5 JUMP JUMPDEST DUP2 PUSH1 0x40 MSTORE DUP4 DUP2 MSTORE DUP7 PUSH1 0x20 DUP6 DUP9 ADD ADD GT ISZERO PUSH3 0xA60 JUMPI PUSH1 0x0 DUP1 REVERT JUMPDEST DUP4 PUSH1 0x20 DUP8 ADD PUSH1 0x20 DUP4 ADD CALLDATACOPY PUSH1 0x0 PUSH1 0x20 DUP6 DUP4 ADD ADD MSTORE DUP1 SWAP5 POP POP POP POP POP SWAP3 SWAP2 POP POP JUMP JUMPDEST PUSH1 0x0 DUP1 PUSH1 0x0 DUP1 PUSH1 0x0 DUP1 PUSH1 0x0 PUSH1 0xE0 DUP9 DUP11 SUB SLT ISZERO PUSH3 0xA9C JUMPI PUSH1 0x0 DUP1 REVERT JUMPDEST DUP8 CALLDATALOAD PUSH8 0xFFFFFFFFFFFFFFFF DUP1 DUP3 GT ISZERO PUSH3 0xAB5 JUMPI PUSH1 0x0 DUP1 REVERT JUMPDEST PUSH3 0xAC3 DUP12 DUP4 DUP13 ADD PUSH3 0x9EB JUMP JUMPDEST SWAP9 POP PUSH1 0x20 DUP11 ADD CALLDATALOAD SWAP2 POP DUP1 DUP3 GT ISZERO PUSH3 0xADA JUMPI PUSH1 0x0 DUP1 REVERT JUMPDEST PUSH3 0xAE8 DUP12 DUP4 DUP13 ADD PUSH3 0x9EB JUMP JUMPDEST SWAP8 POP PUSH1 0x40 DUP11 ADD CALLDATALOAD SWAP2 POP DUP1 DUP3 GT ISZERO PUSH3 0xAFF JUMPI PUSH1 0x0 DUP1 REVERT JUMPDEST PUSH3 0xB0D DUP12 DUP4 DUP13 ADD PUSH3 0x9EB JUMP JUMPDEST SWAP7 POP PUSH3 0xB1D PUSH1 0x60 DUP12 ADD PUSH3 0x944 JUMP JUMPDEST SWAP6 POP PUSH1 0x80 DUP11 ADD CALLDATALOAD SWAP2 POP DUP1 DUP3 GT ISZERO PUSH3 0xB34 JUMPI PUSH1 0x0 DUP1 REVERT JUMPDEST PUSH3 0xB42 DUP12 DUP4 DUP13 ADD PUSH3 0x9EB JUMP JUMPDEST SWAP5 POP PUSH1 0xA0 DUP11 ADD CALLDATALOAD SWAP2 POP DUP1 DUP3 GT ISZERO PUSH3 0xB59 JUMPI PUSH1 0x0 DUP1 REVERT JUMPDEST PUSH3 0xB67 DUP12 DUP4 DUP13 ADD PUSH3 0x9EB JUMP JUMPDEST SWAP4 POP PUSH1 0xC0 DUP11 ADD CALLDATALOAD SWAP2 POP DUP1 DUP3 GT ISZERO PUSH3 0xB7E JUMPI PUSH1 0x0 DUP1 REVERT JUMPDEST POP PUSH3 0xB8D DUP11 DUP3 DUP12 ADD PUSH3 0x9EB JUMP JUMPDEST SWAP2 POP POP SWAP3 SWAP6 SWAP9 SWAP2 SWAP5 SWAP8 POP SWAP3 SWAP6 POP JUMP JUMPDEST PUSH1 0x0 DUP1 PUSH1 0x40 DUP4 DUP6 SUB SLT ISZERO PUSH3 0xBB0 JUMPI PUSH1 0x0 DUP1 REVERT JUMPDEST PUSH3 0xBBB DUP4 PUSH3 0x944 JUMP JUMPDEST SWAP5 PUSH1 0x20 SWAP4 SWAP1 SWAP4 ADD CALLDATALOAD SWAP4 POP POP POP JUMP JUMPDEST PUSH1 0x0 DUP1 PUSH1 0x0 PUSH1 0x60 DUP5 DUP7 SUB SLT ISZERO PUSH3 0xBDF JUMPI PUSH1 0x0 DUP1 REVERT JUMPDEST PUSH3 0xBEA DUP5 PUSH3 0x944 JUMP JUMPDEST SWAP3 POP PUSH3 0xBFA PUSH1 0x20 DUP6 ADD PUSH3 0x944 JUMP JUMPDEST SWAP2 POP PUSH3 0xC0A PUSH1 0x40 DUP6 ADD PUSH3 0x944 JUMP JUMPDEST SWAP1 POP SWAP3 POP SWAP3 POP SWAP3 JUMP JUMPDEST DUP1 MLOAD PUSH10 0xFFFFFFFFFFFFFFFFFFFF DUP2 AND DUP2 EQ PUSH3 0x95C JUMPI PUSH1 0x0 DUP1 REVERT JUMPDEST PUSH1 0x0 DUP1 PUSH1 0x0 DUP1 PUSH1 0x0 PUSH1 0xA0 DUP7 DUP9 SUB SLT ISZERO PUSH3 0xC47 JUMPI PUSH1 0x0 DUP1 REVERT JUMPDEST PUSH3 0xC52 DUP7 PUSH3 0xC13 JUMP JUMPDEST SWAP5 POP PUSH1 0x20 DUP7 ADD MLOAD SWAP4 POP PUSH1 0x40 DUP7 ADD MLOAD SWAP3 POP PUSH1 0x60 DUP7 ADD MLOAD SWAP2 POP PUSH3 0xC77 PUSH1 0x80 DUP8 ADD PUSH3 0xC13 JUMP JUMPDEST SWAP1 POP SWAP3 SWAP6 POP SWAP3 SWAP6 SWAP1 SWAP4 POP JUMP JUMPDEST PUSH4 0x4E487B71 PUSH1 0xE0 SHL PUSH1 0x0 MSTORE PUSH1 0x11 PUSH1 0x4 MSTORE PUSH1 0x24 PUSH1 0x0 REVERT JUMPDEST PUSH1 0x0 DUP2 PUSH1 0x0 NOT DIV DUP4 GT DUP3 ISZERO ISZERO AND ISZERO PUSH3 0xCB6 JUMPI PUSH3 0xCB6 PUSH3 0xC83 JUMP JUMPDEST POP MUL SWAP1 JUMP JUMPDEST PUSH1 0x0 DUP3 PUSH3 0xCD9 JUMPI PUSH4 0x4E487B71 PUSH1 0xE0 SHL PUSH1 0x0 MSTORE PUSH1 0x12 PUSH1 0x4 MSTORE PUSH1 0x24 PUSH1 0x0 REVERT JUMPDEST POP DIV SWAP1 JUMP JUMPDEST DUP2 DUP2 SUB DUP2 DUP2 GT ISZERO PUSH3 0xCF4 JUMPI PUSH3 0xCF4 PUSH3 0xC83 JUMP JUMPDEST SWAP3 SWAP2 POP POP JUMP JUMPDEST PUSH4 0x4E487B71 PUSH1 0xE0 SHL PUSH1 0x0 MSTORE PUSH1 0x32 PUSH1 0x4 MSTORE PUSH1 0x24 PUSH1 0x0 REVERT JUMPDEST PUSH1 0x20 DUP1 DUP3 MSTORE PUSH1 0x36 SWAP1 DUP3 ADD MSTORE PUSH32 0x4E6F7420456E6F756768204554482C20796F75206861766520746F2070617920 PUSH1 0x40 DUP3 ADD MSTORE PUSH22 0x746F2063726561746520636572746966696361746521 PUSH1 0x50 SHL PUSH1 0x60 DUP3 ADD MSTORE PUSH1 0x80 ADD SWAP1 JUMP JUMPDEST PUSH1 0x0 DUP2 MLOAD DUP1 DUP5 MSTORE PUSH1 0x0 JUMPDEST DUP2 DUP2 LT ISZERO PUSH3 0xD8E JUMPI PUSH1 0x20 DUP2 DUP6 ADD DUP2 ADD MLOAD DUP7 DUP4 ADD DUP3 ADD MSTORE ADD PUSH3 0xD70 JUMP JUMPDEST POP PUSH1 0x0 PUSH1 0x20 DUP3 DUP7 ADD ADD MSTORE PUSH1 0x20 PUSH1 0x1F NOT PUSH1 0x1F DUP4 ADD AND DUP6 ADD ADD SWAP2 POP POP SWAP3 SWAP2 POP POP JUMP JUMPDEST PUSH1 0xE0 DUP2 MSTORE PUSH1 0x0 PUSH3 0xDC3 PUSH1 0xE0 DUP4 ADD DUP11 PUSH3 0xD66 JUMP JUMPDEST DUP3 DUP2 SUB PUSH1 0x20 DUP5 ADD MSTORE PUSH3 0xDD7 DUP2 DUP11 PUSH3 0xD66 JUMP JUMPDEST SWAP1 POP DUP3 DUP2 SUB PUSH1 0x40 DUP5 ADD MSTORE PUSH3 0xDED DUP2 DUP10 PUSH3 0xD66 JUMP JUMPDEST PUSH1 0x1 PUSH1 0x1 PUSH1 0xA0 SHL SUB DUP9 AND PUSH1 0x60 DUP6 ADD MSTORE DUP4 DUP2 SUB PUSH1 0x80 DUP6 ADD MSTORE SWAP1 POP PUSH3 0xE12 DUP2 DUP8 PUSH3 0xD66 JUMP JUMPDEST SWAP1 POP DUP3 DUP2 SUB PUSH1 0xA0 DUP5 ADD MSTORE PUSH3 0xE28 DUP2 DUP7 PUSH3 0xD66 JUMP JUMPDEST SWAP1 POP DUP3 DUP2 SUB PUSH1 0xC0 DUP5 ADD MSTORE PUSH3 0xE3E DUP2 DUP6 PUSH3 0xD66 JUMP JUMPDEST SWAP11 SWAP10 POP POP POP POP POP POP POP POP POP POP JUMP JUMPDEST PUSH1 0x0 PUSH1 0x1 DUP3 ADD PUSH3 0xE61 JUMPI PUSH3 0xE61 PUSH3 0xC83 JUMP JUMPDEST POP PUSH1 0x1 ADD SWAP1 JUMP INVALID PUSH1 0x80 PUSH1 0x40 MSTORE CALLVALUE DUP1 ISZERO PUSH3 0x11 JUMPI PUSH1 0x0 DUP1 REVERT JUMPDEST POP PUSH1 0x40 MLOAD PUSH3 0xC3B CODESIZE SUB DUP1 PUSH3 0xC3B DUP4 CODECOPY DUP2 ADD PUSH1 0x40 DUP2 SWAP1 MSTORE PUSH3 0x34 SWAP2 PUSH3 0x29F JUMP JUMPDEST PUSH3 0x3F CALLER PUSH3 0x16D JUMP JUMPDEST PUSH1 0x40 DUP1 MLOAD PUSH1 0xE0 DUP2 ADD DUP3 MSTORE DUP9 DUP2 MSTORE PUSH1 0x20 DUP2 ADD DUP9 SWAP1 MSTORE SWAP1 DUP2 ADD DUP7 SWAP1 MSTORE PUSH1 0x1 PUSH1 0x1 PUSH1 0xA0 SHL SUB DUP6 AND PUSH1 0x60 DUP3 ADD MSTORE PUSH1 0x80 DUP2 ADD DUP5 SWAP1 MSTORE PUSH1 0xA0 DUP2 ADD DUP4 SWAP1 MSTORE PUSH1 0xC0 DUP2 ADD DUP3 SWAP1 MSTORE PUSH1 0x1 DUP1 SLOAD DUP1 DUP3 ADD DUP3 SSTORE PUSH1 0x0 SWAP2 SWAP1 SWAP2 MSTORE DUP2 MLOAD PUSH1 0x7 SWAP1 SWAP2 MUL PUSH32 0xB10E2D527612073B26EECDFD717E6A320CF44B4AFAC2B0732D9FCBE2B7FA0CF6 ADD SWAP1 DUP2 SWAP1 PUSH3 0xC4 SWAP1 DUP3 PUSH3 0x449 JUMP JUMPDEST POP PUSH1 0x20 DUP3 ADD MLOAD PUSH1 0x1 DUP3 ADD SWAP1 PUSH3 0xDB SWAP1 DUP3 PUSH3 0x449 JUMP JUMPDEST POP PUSH1 0x40 DUP3 ADD MLOAD PUSH1 0x2 DUP3 ADD SWAP1 PUSH3 0xF2 SWAP1 DUP3 PUSH3 0x449 JUMP JUMPDEST POP PUSH1 0x60 DUP3 ADD MLOAD PUSH1 0x3 DUP3 ADD DUP1 SLOAD PUSH1 0x1 PUSH1 0x1 PUSH1 0xA0 SHL SUB NOT AND PUSH1 0x1 PUSH1 0x1 PUSH1 0xA0 SHL SUB SWAP1 SWAP3 AND SWAP2 SWAP1 SWAP2 OR SWAP1 SSTORE PUSH1 0x80 DUP3 ADD MLOAD PUSH1 0x4 DUP3 ADD SWAP1 PUSH3 0x12F SWAP1 DUP3 PUSH3 0x449 JUMP JUMPDEST POP PUSH1 0xA0 DUP3 ADD MLOAD PUSH1 0x5 DUP3 ADD SWAP1 PUSH3 0x146 SWAP1 DUP3 PUSH3 0x449 JUMP JUMPDEST POP PUSH1 0xC0 DUP3 ADD MLOAD PUSH1 0x6 DUP3 ADD SWAP1 PUSH3 0x15D SWAP1 DUP3 PUSH3 0x449 JUMP JUMPDEST POP POP POP POP POP POP POP POP POP POP PUSH3 0x515 JUMP JUMPDEST PUSH1 0x0 DUP1 SLOAD PUSH1 0x1 PUSH1 0x1 PUSH1 0xA0 SHL SUB DUP4 DUP2 AND PUSH1 0x1 PUSH1 0x1 PUSH1 0xA0 SHL SUB NOT DUP4 AND DUP2 OR DUP5 SSTORE PUSH1 0x40 MLOAD SWAP2 SWAP1 SWAP3 AND SWAP3 DUP4 SWAP2 PUSH32 0x8BE0079C531659141344CD1FD0A4F28419497F9722A3DAAFE3B4186F6B6457E0 SWAP2 SWAP1 LOG3 POP POP JUMP JUMPDEST PUSH4 0x4E487B71 PUSH1 0xE0 SHL PUSH1 0x0 MSTORE PUSH1 0x41 PUSH1 0x4 MSTORE PUSH1 0x24 PUSH1 0x0 REVERT JUMPDEST PUSH1 0x0 DUP3 PUSH1 0x1F DUP4 ADD SLT PUSH3 0x1E5 JUMPI PUSH1 0x0 DUP1 REVERT JUMPDEST DUP2 MLOAD PUSH1 0x1 PUSH1 0x1 PUSH1 0x40 SHL SUB DUP1 DUP3 GT ISZERO PUSH3 0x202 JUMPI PUSH3 0x202 PUSH3 0x1BD JUMP JUMPDEST PUSH1 0x40 MLOAD PUSH1 0x1F DUP4 ADD PUSH1 0x1F NOT SWAP1 DUP2 AND PUSH1 0x3F ADD AND DUP2 ADD SWAP1 DUP3 DUP3 GT DUP2 DUP4 LT OR ISZERO PUSH3 0x22D JUMPI PUSH3 0x22D PUSH3 0x1BD JUMP JUMPDEST DUP2 PUSH1 0x40 MSTORE DUP4 DUP2 MSTORE PUSH1 0x20 SWAP3 POP DUP7 DUP4 DUP6 DUP9 ADD ADD GT ISZERO PUSH3 0x24A JUMPI PUSH1 0x0 DUP1 REVERT JUMPDEST PUSH1 0x0 SWAP2 POP JUMPDEST DUP4 DUP3 LT ISZERO PUSH3 0x26E JUMPI DUP6 DUP3 ADD DUP4 ADD MLOAD DUP2 DUP4 ADD DUP5 ADD MSTORE SWAP1 DUP3 ADD SWAP1 PUSH3 0x24F JUMP JUMPDEST PUSH1 0x0 SWAP4 DUP2 ADD SWAP1 SWAP3 ADD SWAP3 SWAP1 SWAP3 MSTORE SWAP5 SWAP4 POP POP POP POP JUMP JUMPDEST DUP1 MLOAD PUSH1 0x1 PUSH1 0x1 PUSH1 0xA0 SHL SUB DUP2 AND DUP2 EQ PUSH3 0x29A JUMPI PUSH1 0x0 DUP1 REVERT JUMPDEST SWAP2 SWAP1 POP JUMP JUMPDEST PUSH1 0x0 DUP1 PUSH1 0x0 DUP1 PUSH1 0x0 DUP1 PUSH1 0x0 PUSH1 0xE0 DUP9 DUP11 SUB SLT ISZERO PUSH3 0x2BB JUMPI PUSH1 0x0 DUP1 REVERT JUMPDEST DUP8 MLOAD PUSH1 0x1 PUSH1 0x1 PUSH1 0x40 SHL SUB DUP1 DUP3 GT ISZERO PUSH3 0x2D3 JUMPI PUSH1 0x0 DUP1 REVERT JUMPDEST PUSH3 0x2E1 DUP12 DUP4 DUP13 ADD PUSH3 0x1D3 JUMP JUMPDEST SWAP9 POP PUSH1 0x20 DUP11 ADD MLOAD SWAP2 POP DUP1 DUP3 GT ISZERO PUSH3 0x2F8 JUMPI PUSH1 0x0 DUP1 REVERT JUMPDEST PUSH3 0x306 DUP12 DUP4 DUP13 ADD PUSH3 0x1D3 JUMP JUMPDEST SWAP8 POP PUSH1 0x40 DUP11 ADD MLOAD SWAP2 POP DUP1 DUP3 GT ISZERO PUSH3 0x31D JUMPI PUSH1 0x0 DUP1 REVERT JUMPDEST PUSH3 0x32B DUP12 DUP4 DUP13 ADD PUSH3 0x1D3 JUMP JUMPDEST SWAP7 POP PUSH3 0x33B PUSH1 0x60 DUP12 ADD PUSH3 0x282 JUMP JUMPDEST SWAP6 POP PUSH1 0x80 DUP11 ADD MLOAD SWAP2 POP DUP1 DUP3 GT ISZERO PUSH3 0x352 JUMPI PUSH1 0x0 DUP1 REVERT JUMPDEST PUSH3 0x360 DUP12 DUP4 DUP13 ADD PUSH3 0x1D3 JUMP JUMPDEST SWAP5 POP PUSH1 0xA0 DUP11 ADD MLOAD SWAP2 POP DUP1 DUP3 GT ISZERO PUSH3 0x377 JUMPI PUSH1 0x0 DUP1 REVERT JUMPDEST PUSH3 0x385 DUP12 DUP4 DUP13 ADD PUSH3 0x1D3 JUMP JUMPDEST SWAP4 POP PUSH1 0xC0 DUP11 ADD MLOAD SWAP2 POP DUP1 DUP3 GT ISZERO PUSH3 0x39C JUMPI PUSH1 0x0 DUP1 REVERT JUMPDEST POP PUSH3 0x3AB DUP11 DUP3 DUP12 ADD PUSH3 0x1D3 JUMP JUMPDEST SWAP2 POP POP SWAP3 SWAP6 SWAP9 SWAP2 SWAP5 SWAP8 POP SWAP3 SWAP6 POP JUMP JUMPDEST PUSH1 0x1 DUP2 DUP2 SHR SWAP1 DUP3 AND DUP1 PUSH3 0x3CF JUMPI PUSH1 0x7F DUP3 AND SWAP2 POP JUMPDEST PUSH1 0x20 DUP3 LT DUP2 SUB PUSH3 0x3F0 JUMPI PUSH4 0x4E487B71 PUSH1 0xE0 SHL PUSH1 0x0 MSTORE PUSH1 0x22 PUSH1 0x4 MSTORE PUSH1 0x24 PUSH1 0x0 REVERT JUMPDEST POP SWAP2 SWAP1 POP JUMP JUMPDEST PUSH1 0x1F DUP3 GT ISZERO PUSH3 0x444 JUMPI PUSH1 0x0 DUP2 DUP2 MSTORE PUSH1 0x20 DUP2 KECCAK256 PUSH1 0x1F DUP6 ADD PUSH1 0x5 SHR DUP2 ADD PUSH1 0x20 DUP7 LT ISZERO PUSH3 0x41F JUMPI POP DUP1 JUMPDEST PUSH1 0x1F DUP6 ADD PUSH1 0x5 SHR DUP3 ADD SWAP2 POP JUMPDEST DUP2 DUP2 LT ISZERO PUSH3 0x440 JUMPI DUP3 DUP2 SSTORE PUSH1 0x1 ADD PUSH3 0x42B JUMP JUMPDEST POP POP POP JUMPDEST POP POP POP JUMP JUMPDEST DUP2 MLOAD PUSH1 0x1 PUSH1 0x1 PUSH1 0x40 SHL SUB DUP2 GT ISZERO PUSH3 0x465 JUMPI PUSH3 0x465 PUSH3 0x1BD JUMP JUMPDEST PUSH3 0x47D DUP2 PUSH3 0x476 DUP5 SLOAD PUSH3 0x3BA JUMP JUMPDEST DUP5 PUSH3 0x3F6 JUMP JUMPDEST PUSH1 0x20 DUP1 PUSH1 0x1F DUP4 GT PUSH1 0x1 DUP2 EQ PUSH3 0x4B5 JUMPI PUSH1 0x0 DUP5 ISZERO PUSH3 0x49C JUMPI POP DUP6 DUP4 ADD MLOAD JUMPDEST PUSH1 0x0 NOT PUSH1 0x3 DUP7 SWAP1 SHL SHR NOT AND PUSH1 0x1 DUP6 SWAP1 SHL OR DUP6 SSTORE PUSH3 0x440 JUMP JUMPDEST PUSH1 0x0 DUP6 DUP2 MSTORE PUSH1 0x20 DUP2 KECCAK256 PUSH1 0x1F NOT DUP7 AND SWAP2 JUMPDEST DUP3 DUP2 LT ISZERO PUSH3 0x4E6 JUMPI DUP9 DUP7 ADD MLOAD DUP3 SSTORE SWAP5 DUP5 ADD SWAP5 PUSH1 0x1 SWAP1 SWAP2 ADD SWAP1 DUP5 ADD PUSH3 0x4C5 JUMP JUMPDEST POP DUP6 DUP3 LT ISZERO PUSH3 0x505 JUMPI DUP8 DUP6 ADD MLOAD PUSH1 0x0 NOT PUSH1 0x3 DUP9 SWAP1 SHL PUSH1 0xF8 AND SHR NOT AND DUP2 SSTORE JUMPDEST POP POP POP POP POP PUSH1 0x1 SWAP1 DUP2 SHL ADD SWAP1 SSTORE POP JUMP JUMPDEST PUSH2 0x716 DUP1 PUSH3 0x525 PUSH1 0x0 CODECOPY PUSH1 0x0 RETURN INVALID PUSH1 0x80 PUSH1 0x40 MSTORE CALLVALUE DUP1 ISZERO PUSH2 0x10 JUMPI PUSH1 0x0 DUP1 REVERT JUMPDEST POP PUSH1 0x4 CALLDATASIZE LT PUSH2 0x4C JUMPI PUSH1 0x0 CALLDATALOAD PUSH1 0xE0 SHR DUP1 PUSH4 0x365B98B2 EQ PUSH2 0x51 JUMPI DUP1 PUSH4 0x715018A6 EQ PUSH2 0x80 JUMPI DUP1 PUSH4 0x8DA5CB5B EQ PUSH2 0x8A JUMPI DUP1 PUSH4 0xF2FDE38B EQ PUSH2 0xA5 JUMPI JUMPDEST PUSH1 0x0 DUP1 REVERT JUMPDEST PUSH2 0x64 PUSH2 0x5F CALLDATASIZE PUSH1 0x4 PUSH2 0x585 JUMP JUMPDEST PUSH2 0xB8 JUMP JUMPDEST PUSH1 0x40 MLOAD PUSH2 0x77 SWAP8 SWAP7 SWAP6 SWAP5 SWAP4 SWAP3 SWAP2 SWAP1 PUSH2 0x5E4 JUMP JUMPDEST PUSH1 0x40 MLOAD DUP1 SWAP2 SUB SWAP1 RETURN JUMPDEST PUSH2 0x88 PUSH2 0x449 JUMP JUMPDEST STOP JUMPDEST PUSH1 0x0 SLOAD PUSH1 0x40 MLOAD PUSH1 0x1 PUSH1 0x1 PUSH1 0xA0 SHL SUB SWAP1 SWAP2 AND DUP2 MSTORE PUSH1 0x20 ADD PUSH2 0x77 JUMP JUMPDEST PUSH2 0x88 PUSH2 0xB3 CALLDATASIZE PUSH1 0x4 PUSH2 0x676 JUMP JUMPDEST PUSH2 0x45D JUMP JUMPDEST PUSH1 0x1 DUP2 DUP2 SLOAD DUP2 LT PUSH2 0xC8 JUMPI PUSH1 0x0 DUP1 REVERT JUMPDEST SWAP1 PUSH1 0x0 MSTORE PUSH1 0x20 PUSH1 0x0 KECCAK256 SWAP1 PUSH1 0x7 MUL ADD PUSH1 0x0 SWAP2 POP SWAP1 POP DUP1 PUSH1 0x0 ADD DUP1 SLOAD PUSH2 0xEB SWAP1 PUSH2 0x6A6 JUMP JUMPDEST DUP1 PUSH1 0x1F ADD PUSH1 0x20 DUP1 SWAP2 DIV MUL PUSH1 0x20 ADD PUSH1 0x40 MLOAD SWAP1 DUP2 ADD PUSH1 0x40 MSTORE DUP1 SWAP3 SWAP2 SWAP1 DUP2 DUP2 MSTORE PUSH1 0x20 ADD DUP3 DUP1 SLOAD PUSH2 0x117 SWAP1 PUSH2 0x6A6 JUMP JUMPDEST DUP1 ISZERO PUSH2 0x164 JUMPI DUP1 PUSH1 0x1F LT PUSH2 0x139 JUMPI PUSH2 0x100 DUP1 DUP4 SLOAD DIV MUL DUP4 MSTORE SWAP2 PUSH1 0x20 ADD SWAP2 PUSH2 0x164 JUMP JUMPDEST DUP3 ADD SWAP2 SWAP1 PUSH1 0x0 MSTORE PUSH1 0x20 PUSH1 0x0 KECCAK256 SWAP1 JUMPDEST DUP2 SLOAD DUP2 MSTORE SWAP1 PUSH1 0x1 ADD SWAP1 PUSH1 0x20 ADD DUP1 DUP4 GT PUSH2 0x147 JUMPI DUP3 SWAP1 SUB PUSH1 0x1F AND DUP3 ADD SWAP2 JUMPDEST POP POP POP POP POP SWAP1 DUP1 PUSH1 0x1 ADD DUP1 SLOAD PUSH2 0x179 SWAP1 PUSH2 0x6A6 JUMP JUMPDEST DUP1 PUSH1 0x1F ADD PUSH1 0x20 DUP1 SWAP2 DIV MUL PUSH1 0x20 ADD PUSH1 0x40 MLOAD SWAP1 DUP2 ADD PUSH1 0x40 MSTORE DUP1 SWAP3 SWAP2 SWAP1 DUP2 DUP2 MSTORE PUSH1 0x20 ADD DUP3 DUP1 SLOAD PUSH2 0x1A5 SWAP1 PUSH2 0x6A6 JUMP JUMPDEST DUP1 ISZERO PUSH2 0x1F2 JUMPI DUP1 PUSH1 0x1F LT PUSH2 0x1C7 JUMPI PUSH2 0x100 DUP1 DUP4 SLOAD DIV MUL DUP4 MSTORE SWAP2 PUSH1 0x20 ADD SWAP2 PUSH2 0x1F2 JUMP JUMPDEST DUP3 ADD SWAP2 SWAP1 PUSH1 0x0 MSTORE PUSH1 0x20 PUSH1 0x0 KECCAK256 SWAP1 JUMPDEST DUP2 SLOAD DUP2 MSTORE SWAP1 PUSH1 0x1 ADD SWAP1 PUSH1 0x20 ADD DUP1 DUP4 GT PUSH2 0x1D5 JUMPI DUP3 SWAP1 SUB PUSH1 0x1F AND DUP3 ADD SWAP2 JUMPDEST POP POP POP POP POP SWAP1 DUP1 PUSH1 0x2 ADD DUP1 SLOAD PUSH2 0x207 SWAP1 PUSH2 0x6A6 JUMP JUMPDEST DUP1 PUSH1 0x1F ADD PUSH1 0x20 DUP1 SWAP2 DIV MUL PUSH1 0x20 ADD PUSH1 0x40 MLOAD SWAP1 DUP2 ADD PUSH1 0x40 MSTORE DUP1 SWAP3 SWAP2 SWAP1 DUP2 DUP2 MSTORE PUSH1 0x20 ADD DUP3 DUP1 SLOAD PUSH2 0x233 SWAP1 PUSH2 0x6A6 JUMP JUMPDEST DUP1 ISZERO PUSH2 0x280 JUMPI DUP1 PUSH1 0x1F LT PUSH2 0x255 JUMPI PUSH2 0x100 DUP1 DUP4 SLOAD DIV MUL DUP4 MSTORE SWAP2 PUSH1 0x20 ADD SWAP2 PUSH2 0x280 JUMP JUMPDEST DUP3 ADD SWAP2 SWAP1 PUSH1 0x0 MSTORE PUSH1 0x20 PUSH1 0x0 KECCAK256 SWAP1 JUMPDEST DUP2 SLOAD DUP2 MSTORE SWAP1 PUSH1 0x1 ADD SWAP1 PUSH1 0x20 ADD DUP1 DUP4 GT PUSH2 0x263 JUMPI DUP3 SWAP1 SUB PUSH1 0x1F AND DUP3 ADD SWAP2 JUMPDEST POP POP POP PUSH1 0x3 DUP5 ADD SLOAD PUSH1 0x4 DUP6 ADD DUP1 SLOAD SWAP5 SWAP6 PUSH1 0x1 PUSH1 0x1 PUSH1 0xA0 SHL SUB SWAP1 SWAP3 AND SWAP5 SWAP2 SWAP4 POP SWAP2 POP PUSH2 0x2AA SWAP1 PUSH2 0x6A6 JUMP JUMPDEST DUP1 PUSH1 0x1F ADD PUSH1 0x20 DUP1 SWAP2 DIV MUL PUSH1 0x20 ADD PUSH1 0x40 MLOAD SWAP1 DUP2 ADD PUSH1 0x40 MSTORE DUP1 SWAP3 SWAP2 SWAP1 DUP2 DUP2 MSTORE PUSH1 0x20 ADD DUP3 DUP1 SLOAD PUSH2 0x2D6 SWAP1 PUSH2 0x6A6 JUMP JUMPDEST DUP1 ISZERO PUSH2 0x323 JUMPI DUP1 PUSH1 0x1F LT PUSH2 0x2F8 JUMPI PUSH2 0x100 DUP1 DUP4 SLOAD DIV MUL DUP4 MSTORE SWAP2 PUSH1 0x20 ADD SWAP2 PUSH2 0x323 JUMP JUMPDEST DUP3 ADD SWAP2 SWAP1 PUSH1 0x0 MSTORE PUSH1 0x20 PUSH1 0x0 KECCAK256 SWAP1 JUMPDEST DUP2 SLOAD DUP2 MSTORE SWAP1 PUSH1 0x1 ADD SWAP1 PUSH1 0x20 ADD DUP1 DUP4 GT PUSH2 0x306 JUMPI DUP3 SWAP1 SUB PUSH1 0x1F AND DUP3 ADD SWAP2 JUMPDEST POP POP POP POP POP SWAP1 DUP1 PUSH1 0x5 ADD DUP1 SLOAD PUSH2 0x338 SWAP1 PUSH2 0x6A6 JUMP JUMPDEST DUP1 PUSH1 0x1F ADD PUSH1 0x20 DUP1 SWAP2 DIV MUL PUSH1 0x20 ADD PUSH1 0x40 MLOAD SWAP1 DUP2 ADD PUSH1 0x40 MSTORE DUP1 SWAP3 SWAP2 SWAP1 DUP2 DUP2 MSTORE PUSH1 0x20 ADD DUP3 DUP1 SLOAD PUSH2 0x364 SWAP1 PUSH2 0x6A6 JUMP JUMPDEST DUP1 ISZERO PUSH2 0x3B1 JUMPI DUP1 PUSH1 0x1F LT PUSH2 0x386 JUMPI PUSH2 0x100 DUP1 DUP4 SLOAD DIV MUL DUP4 MSTORE SWAP2 PUSH1 0x20 ADD SWAP2 PUSH2 0x3B1 JUMP JUMPDEST DUP3 ADD SWAP2 SWAP1 PUSH1 0x0 MSTORE PUSH1 0x20 PUSH1 0x0 KECCAK256 SWAP1 JUMPDEST DUP2 SLOAD DUP2 MSTORE SWAP1 PUSH1 0x1 ADD SWAP1 PUSH1 0x20 ADD DUP1 DUP4 GT PUSH2 0x394 JUMPI DUP3 SWAP1 SUB PUSH1 0x1F AND DUP3 ADD SWAP2 JUMPDEST POP POP POP POP POP SWAP1 DUP1 PUSH1 0x6 ADD DUP1 SLOAD PUSH2 0x3C6 SWAP1 PUSH2 0x6A6 JUMP JUMPDEST DUP1 PUSH1 0x1F ADD PUSH1 0x20 DUP1 SWAP2 DIV MUL PUSH1 0x20 ADD PUSH1 0x40 MLOAD SWAP1 DUP2 ADD PUSH1 0x40 MSTORE DUP1 SWAP3 SWAP2 SWAP1 DUP2 DUP2 MSTORE PUSH1 0x20 ADD DUP3 DUP1 SLOAD PUSH2 0x3F2 SWAP1 PUSH2 0x6A6 JUMP JUMPDEST DUP1 ISZERO PUSH2 0x43F JUMPI DUP1 PUSH1 0x1F LT PUSH2 0x414 JUMPI PUSH2 0x100 DUP1 DUP4 SLOAD DIV MUL DUP4 MSTORE SWAP2 PUSH1 0x20 ADD SWAP2 PUSH2 0x43F JUMP JUMPDEST DUP3 ADD SWAP2 SWAP1 PUSH1 0x0 MSTORE PUSH1 0x20 PUSH1 0x0 KECCAK256 SWAP1 JUMPDEST DUP2 SLOAD DUP2 MSTORE SWAP1 PUSH1 0x1 ADD SWAP1 PUSH1 0x20 ADD DUP1 DUP4 GT PUSH2 0x422 JUMPI DUP3 SWAP1 SUB PUSH1 0x1F AND DUP3 ADD SWAP2 JUMPDEST POP POP POP POP POP SWAP1 POP DUP8 JUMP JUMPDEST PUSH2 0x451 PUSH2 0x4DB JUMP JUMPDEST PUSH2 0x45B PUSH1 0x0 PUSH2 0x535 JUMP JUMPDEST JUMP JUMPDEST PUSH2 0x465 PUSH2 0x4DB JUMP JUMPDEST PUSH1 0x1 PUSH1 0x1 PUSH1 0xA0 SHL SUB DUP2 AND PUSH2 0x4CF JUMPI PUSH1 0x40 MLOAD PUSH3 0x461BCD PUSH1 0xE5 SHL DUP2 MSTORE PUSH1 0x20 PUSH1 0x4 DUP3 ADD MSTORE PUSH1 0x26 PUSH1 0x24 DUP3 ADD MSTORE PUSH32 0x4F776E61626C653A206E6577206F776E657220697320746865207A65726F2061 PUSH1 0x44 DUP3 ADD MSTORE PUSH6 0x646472657373 PUSH1 0xD0 SHL PUSH1 0x64 DUP3 ADD MSTORE PUSH1 0x84 ADD JUMPDEST PUSH1 0x40 MLOAD DUP1 SWAP2 SUB SWAP1 REVERT JUMPDEST PUSH2 0x4D8 DUP2 PUSH2 0x535 JUMP JUMPDEST POP JUMP JUMPDEST PUSH1 0x0 SLOAD PUSH1 0x1 PUSH1 0x1 PUSH1 0xA0 SHL SUB AND CALLER EQ PUSH2 0x45B JUMPI PUSH1 0x40 MLOAD PUSH3 0x461BCD PUSH1 0xE5 SHL DUP2 MSTORE PUSH1 0x20 PUSH1 0x4 DUP3 ADD DUP2 SWAP1 MSTORE PUSH1 0x24 DUP3 ADD MSTORE PUSH32 0x4F776E61626C653A2063616C6C6572206973206E6F7420746865206F776E6572 PUSH1 0x44 DUP3 ADD MSTORE PUSH1 0x64 ADD PUSH2 0x4C6 JUMP JUMPDEST PUSH1 0x0 DUP1 SLOAD PUSH1 0x1 PUSH1 0x1 PUSH1 0xA0 SHL SUB DUP4 DUP2 AND PUSH1 0x1 PUSH1 0x1 PUSH1 0xA0 SHL SUB NOT DUP4 AND DUP2 OR DUP5 SSTORE PUSH1 0x40 MLOAD SWAP2 SWAP1 SWAP3 AND SWAP3 DUP4 SWAP2 PUSH32 0x8BE0079C531659141344CD1FD0A4F28419497F9722A3DAAFE3B4186F6B6457E0 SWAP2 SWAP1 LOG3 POP POP JUMP JUMPDEST PUSH1 0x0 PUSH1 0x20 DUP3 DUP5 SUB SLT ISZERO PUSH2 0x597 JUMPI PUSH1 0x0 DUP1 REVERT JUMPDEST POP CALLDATALOAD SWAP2 SWAP1 POP JUMP JUMPDEST PUSH1 0x0 DUP2 MLOAD DUP1 DUP5 MSTORE PUSH1 0x0 JUMPDEST DUP2 DUP2 LT ISZERO PUSH2 0x5C4 JUMPI PUSH1 0x20 DUP2 DUP6 ADD DUP2 ADD MLOAD DUP7 DUP4 ADD DUP3 ADD MSTORE ADD PUSH2 0x5A8 JUMP JUMPDEST POP PUSH1 0x0 PUSH1 0x20 DUP3 DUP7 ADD ADD MSTORE PUSH1 0x20 PUSH1 0x1F NOT PUSH1 0x1F DUP4 ADD AND DUP6 ADD ADD SWAP2 POP POP SWAP3 SWAP2 POP POP JUMP JUMPDEST PUSH1 0xE0 DUP2 MSTORE PUSH1 0x0 PUSH2 0x5F7 PUSH1 0xE0 DUP4 ADD DUP11 PUSH2 0x59E JUMP JUMPDEST DUP3 DUP2 SUB PUSH1 0x20 DUP5 ADD MSTORE PUSH2 0x609 DUP2 DUP11 PUSH2 0x59E JUMP JUMPDEST SWAP1 POP DUP3 DUP2 SUB PUSH1 0x40 DUP5 ADD MSTORE PUSH2 0x61D DUP2 DUP10 PUSH2 0x59E JUMP JUMPDEST PUSH1 0x1 PUSH1 0x1 PUSH1 0xA0 SHL SUB DUP9 AND PUSH1 0x60 DUP6 ADD MSTORE DUP4 DUP2 SUB PUSH1 0x80 DUP6 ADD MSTORE SWAP1 POP PUSH2 0x640 DUP2 DUP8 PUSH2 0x59E JUMP JUMPDEST SWAP1 POP DUP3 DUP2 SUB PUSH1 0xA0 DUP5 ADD MSTORE PUSH2 0x654 DUP2 DUP7 PUSH2 0x59E JUMP JUMPDEST SWAP1 POP DUP3 DUP2 SUB PUSH1 0xC0 DUP5 ADD MSTORE PUSH2 0x668 DUP2 DUP6 PUSH2 0x59E JUMP JUMPDEST SWAP11 SWAP10 POP POP POP POP POP POP POP POP POP POP JUMP JUMPDEST PUSH1 0x0 PUSH1 0x20 DUP3 DUP5 SUB SLT ISZERO PUSH2 0x688 JUMPI PUSH1 0x0 DUP1 REVERT JUMPDEST DUP2 CALLDATALOAD PUSH1 0x1 PUSH1 0x1 PUSH1 0xA0 SHL SUB DUP2 AND DUP2 EQ PUSH2 0x69F JUMPI PUSH1 0x0 DUP1 REVERT JUMPDEST SWAP4 SWAP3 POP POP POP JUMP JUMPDEST PUSH1 0x1 DUP2 DUP2 SHR SWAP1 DUP3 AND DUP1 PUSH2 0x6BA JUMPI PUSH1 0x7F DUP3 AND SWAP2 POP JUMPDEST PUSH1 0x20 DUP3 LT DUP2 SUB PUSH2 0x6DA JUMPI PUSH4 0x4E487B71 PUSH1 0xE0 SHL PUSH1 0x0 MSTORE PUSH1 0x22 PUSH1 0x4 MSTORE PUSH1 0x24 PUSH1 0x0 REVERT JUMPDEST POP SWAP2 SWAP1 POP JUMP INVALID LOG2 PUSH5 0x6970667358 0x22 SLT KECCAK256 0xBF 0xEB SWAP9 PUSH26 0x991A2DF0966991C762AA9A8871B5405DEA8D98E914796FA32785 NOT JUMP PUSH5 0x736F6C6343 STOP ADDMOD LT STOP CALLER LOG2 PUSH5 0x6970667358 0x22 SLT KECCAK256 PUSH27 0xA4CF5A3800A11A69A55CB81DA23FFC38DE6808073FBF514FF888B 0xA5 0x2E 0xD0 PUSH1 0x64 PUSH20 0x6F6C634300081000330000000000000000000000 ",
  "sha1": "012ecedd9719905d97251198dd8f40c929e8cdd5",
  "source": "// SPDX-License-Identifier: MIT\npragma solidity ^0.8.0;\n\nimport \"@chainlink/contracts/src/v0.8/interfaces/AggregatorV3Interface.sol\";\nimport \"@openzeppelin/contracts/access/Ownable.sol\";\nimport \"./CopyRightLock.sol\";\n\ncontract CopyRightLockCreator is Ownable {\n    \n    mapping(address => address[]) public addressToContract;\n    CopyRightLock[] private certificatesStorageArray;\n\n    uint256 public usdEntryFee; // variable storing minimum fee\n    AggregatorV3Interface internal ethUsdPriceFeed;\n\n    constructor(address _priceFeedAddress) {\n        ethUsdPriceFeed = AggregatorV3Interface(_priceFeedAddress); // Assignment of price feed variable\n        usdEntryFee = 50 * (10**18);\n    }\n\n    // Client needs to pay us in order to use addCertificate() function.\n    function addCertificate(\n        string memory _certificate,\n        string memory _date,\n        string memory _title,\n        address _address,\n        string memory _name,\n        string memory _additional,\n        string memory _hash\n    ) public payable {\n        // Money All Clients pay should be stored on CopyRightLockCreator Contract, so as owners of that Contract we can withdraw it.\n        require(msg.value >= getMinimumFee(), \"Not Enough ETH, you have to pay to create certificate!\");\n        CopyRightLock certificateStorage = new CopyRightLock(\n            _certificate,\n            _date,\n            _title,\n            _address,\n            _name,\n            _additional,\n            _hash\n        );\n        // Below adding new Certificate(Contract) to array, which contains all certificates ever created by all clients.\n        certificatesStorageArray.push(certificateStorage);\n        // Below is mapping Client address with all Certificates(Contracts) he deployed (tracking all certificates, which given Client is owner of).\n        addressToContract[msg.sender].push(address(certificateStorage));\n        //return address(certificateStorage); // MO: to read deployed POP\n    }\n\n    // NI: function that returns last certificate.\n    function getLastCertificate() public view onlyOwner returns (address) {\n        uint256 lastIndex = certificatesStorageArray.length - 1;\n        return address(certificatesStorageArray[lastIndex]);\n    }\n\n    // NI: Below function allows client to check all certificates(contracts) he owns.\n    function getCertificatesYouOwn(address _yourAddress)\n        public\n        view\n        returns (address[] memory)\n    {\n        return addressToContract[_yourAddress];\n    }\n\n    // NI: Below function defines minimal fee's to use addCertificate() and transOwnership() functions.\n    function getMinimumFee() public view returns (uint256) {\n        (, int256 price, , , ) = ethUsdPriceFeed.latestRoundData(); // Takes this from AggregatorV3 latestRoundData\n        uint256 adjustedPrice = uint256(price) * 10**10; // adjustedPrice has to be expressed with 18 decimals. From Chainlink pricefeed, we know ETH/USD has 8 decimals, so we need to multiply by 10^10\n        uint256 costToEnter = (usdEntryFee * 10**18) / adjustedPrice; // We cannot return decimals, hence we need to express 50$ with 50 * 10*18 / 2000 (adjusted price of ETH)\n        return costToEnter; // for testing\n    }\n\n    // NI: Read balance of contract factory\n    function showBalance() public view onlyOwner returns (uint256) {\n        uint256 POPbalance = address(this).balance;\n        return POPbalance;\n    }\n\n    // NI: Below function allows us as Owners of this contract to withdraw money gathered on this contract.\n    function withdraw() public payable onlyOwner {\n        payable(msg.sender).transfer(address(this).balance);\n    }\n\n    // NI: Function created for test's purposes\n    function arrayLengthGetter(address _yourAddress) public view onlyOwner returns (uint, uint) {\n        uint all_certs_array = certificatesStorageArray.length;\n        uint clients_owned_certs_array = getCertificatesYouOwn(_yourAddress).length;\n        return (all_certs_array, clients_owned_certs_array);\n    }\n\n    // NI: Function to change owner of certificate\n    function transOwnership(address current_owner, address new_owner, address cert_address) public payable {\n        \n        require(current_owner == msg.sender, \"You Are Not Owner Of This Certificate!\");\n        require(msg.value >= getMinimumFee(), \"Not Enough ETH, you have to pay to create certificate!\");\n        \n        address[] memory current_owner_certs = getCertificatesYouOwn(current_owner);\n        \n        delete(addressToContract[current_owner]);\n\n        // NI: Below transfer ownership method with require() statement above will prevent any malicious attempts of ownership transfers.        \n        for (uint i=0; i < current_owner_certs.length; i++){\n            if (current_owner_certs[i] == cert_address){\n                addressToContract[new_owner].push(cert_address);\n            }\n            if (current_owner_certs[i] != cert_address){\n                addressToContract[current_owner].push(current_owner_certs[i]);\n            }\n        }\n    }\n}\n",
  "sourcePath": "contracts/CopyRightLockCreator.sol",
  "type": "contract"
}